{
  "contractName": "Election",
  "abi": [
    {
      "inputs": [
        {
          "internalType": "string",
          "name": "_adminName",
          "type": "string"
        },
        {
          "internalType": "string",
          "name": "_adminEmail",
          "type": "string"
        },
        {
          "internalType": "string",
          "name": "_adminTitle",
          "type": "string"
        },
        {
          "internalType": "string",
          "name": "_electionTitle",
          "type": "string"
        },
        {
          "internalType": "string",
          "name": "_organizationTitle",
          "type": "string"
        }
      ],
      "stateMutability": "nonpayable",
      "type": "constructor"
    },
    {
      "anonymous": false,
      "inputs": [
        {
          "indexed": true,
          "internalType": "address",
          "name": "oldAdmin",
          "type": "address"
        },
        {
          "indexed": true,
          "internalType": "address",
          "name": "newAdmin",
          "type": "address"
        }
      ],
      "name": "AdminTransferred",
      "type": "event"
    },
    {
      "anonymous": false,
      "inputs": [
        {
          "indexed": false,
          "internalType": "uint256",
          "name": "candidateId",
          "type": "uint256"
        },
        {
          "indexed": false,
          "internalType": "string",
          "name": "header",
          "type": "string"
        }
      ],
      "name": "CandidateAdded",
      "type": "event"
    },
    {
      "anonymous": false,
      "inputs": [],
      "name": "ElectionEnded",
      "type": "event"
    },
    {
      "anonymous": false,
      "inputs": [],
      "name": "ElectionStarted",
      "type": "event"
    },
    {
      "anonymous": false,
      "inputs": [
        {
          "indexed": false,
          "internalType": "address",
          "name": "voter",
          "type": "address"
        },
        {
          "indexed": false,
          "internalType": "uint256",
          "name": "candidateId",
          "type": "uint256"
        }
      ],
      "name": "VoteCast",
      "type": "event"
    },
    {
      "anonymous": false,
      "inputs": [
        {
          "indexed": true,
          "internalType": "address",
          "name": "voterAddress",
          "type": "address"
        }
      ],
      "name": "VoterRemoved",
      "type": "event"
    },
    {
      "inputs": [],
      "name": "admin",
      "outputs": [
        {
          "internalType": "address",
          "name": "",
          "type": "address"
        }
      ],
      "stateMutability": "view",
      "type": "function",
      "constant": true
    },
    {
      "inputs": [],
      "name": "candidateCount",
      "outputs": [
        {
          "internalType": "uint256",
          "name": "",
          "type": "uint256"
        }
      ],
      "stateMutability": "view",
      "type": "function",
      "constant": true
    },
    {
      "inputs": [
        {
          "internalType": "uint256",
          "name": "",
          "type": "uint256"
        }
      ],
      "name": "candidateDetails",
      "outputs": [
        {
          "internalType": "uint256",
          "name": "candidateId",
          "type": "uint256"
        },
        {
          "internalType": "string",
          "name": "header",
          "type": "string"
        },
        {
          "internalType": "string",
          "name": "slogan",
          "type": "string"
        },
        {
          "internalType": "uint256",
          "name": "voteCount",
          "type": "uint256"
        }
      ],
      "stateMutability": "view",
      "type": "function",
      "constant": true
    },
    {
      "inputs": [],
      "name": "electionDetails",
      "outputs": [
        {
          "internalType": "string",
          "name": "adminName",
          "type": "string"
        },
        {
          "internalType": "string",
          "name": "adminEmail",
          "type": "string"
        },
        {
          "internalType": "string",
          "name": "adminTitle",
          "type": "string"
        },
        {
          "internalType": "string",
          "name": "electionTitle",
          "type": "string"
        },
        {
          "internalType": "string",
          "name": "organizationTitle",
          "type": "string"
        }
      ],
      "stateMutability": "view",
      "type": "function",
      "constant": true
    },
    {
      "inputs": [],
      "name": "end",
      "outputs": [
        {
          "internalType": "bool",
          "name": "",
          "type": "bool"
        }
      ],
      "stateMutability": "view",
      "type": "function",
      "constant": true
    },
    {
      "inputs": [],
      "name": "start",
      "outputs": [
        {
          "internalType": "bool",
          "name": "",
          "type": "bool"
        }
      ],
      "stateMutability": "view",
      "type": "function",
      "constant": true
    },
    {
      "inputs": [],
      "name": "voterCount",
      "outputs": [
        {
          "internalType": "uint256",
          "name": "",
          "type": "uint256"
        }
      ],
      "stateMutability": "view",
      "type": "function",
      "constant": true
    },
    {
      "inputs": [
        {
          "internalType": "address",
          "name": "",
          "type": "address"
        }
      ],
      "name": "voterDetails",
      "outputs": [
        {
          "internalType": "address",
          "name": "voterAddress",
          "type": "address"
        },
        {
          "internalType": "string",
          "name": "name",
          "type": "string"
        },
        {
          "internalType": "string",
          "name": "phone",
          "type": "string"
        },
        {
          "internalType": "uint256",
          "name": "weight",
          "type": "uint256"
        },
        {
          "internalType": "bool",
          "name": "voted",
          "type": "bool"
        },
        {
          "internalType": "address",
          "name": "delegate",
          "type": "address"
        },
        {
          "internalType": "uint256",
          "name": "vote",
          "type": "uint256"
        },
        {
          "internalType": "bool",
          "name": "isVerified",
          "type": "bool"
        },
        {
          "internalType": "bool",
          "name": "isRegistered",
          "type": "bool"
        }
      ],
      "stateMutability": "view",
      "type": "function",
      "constant": true
    },
    {
      "inputs": [
        {
          "internalType": "uint256",
          "name": "",
          "type": "uint256"
        }
      ],
      "name": "voters",
      "outputs": [
        {
          "internalType": "address",
          "name": "",
          "type": "address"
        }
      ],
      "stateMutability": "view",
      "type": "function",
      "constant": true
    },
    {
      "inputs": [
        {
          "internalType": "address",
          "name": "newAdmin",
          "type": "address"
        }
      ],
      "name": "transferAdmin",
      "outputs": [],
      "stateMutability": "nonpayable",
      "type": "function"
    },
    {
      "inputs": [
        {
          "internalType": "string",
          "name": "_header",
          "type": "string"
        },
        {
          "internalType": "string",
          "name": "_slogan",
          "type": "string"
        }
      ],
      "name": "addCandidate",
      "outputs": [],
      "stateMutability": "nonpayable",
      "type": "function"
    },
    {
      "inputs": [],
      "name": "getTotalCandidates",
      "outputs": [
        {
          "internalType": "uint256",
          "name": "",
          "type": "uint256"
        }
      ],
      "stateMutability": "view",
      "type": "function",
      "constant": true
    },
    {
      "inputs": [
        {
          "internalType": "string",
          "name": "_name",
          "type": "string"
        },
        {
          "internalType": "string",
          "name": "_phone",
          "type": "string"
        }
      ],
      "name": "registerAsVoter",
      "outputs": [],
      "stateMutability": "nonpayable",
      "type": "function"
    },
    {
      "inputs": [],
      "name": "getVoterList",
      "outputs": [
        {
          "internalType": "address[]",
          "name": "",
          "type": "address[]"
        },
        {
          "internalType": "string[]",
          "name": "",
          "type": "string[]"
        },
        {
          "internalType": "string[]",
          "name": "",
          "type": "string[]"
        },
        {
          "internalType": "bool[]",
          "name": "",
          "type": "bool[]"
        }
      ],
      "stateMutability": "view",
      "type": "function",
      "constant": true
    },
    {
      "inputs": [
        {
          "internalType": "address",
          "name": "voterAddress",
          "type": "address"
        },
        {
          "internalType": "bool",
          "name": "_verifiedStatus",
          "type": "bool"
        }
      ],
      "name": "verifyVoter",
      "outputs": [],
      "stateMutability": "nonpayable",
      "type": "function"
    },
    {
      "inputs": [
        {
          "internalType": "address",
          "name": "to",
          "type": "address"
        }
      ],
      "name": "delegate",
      "outputs": [],
      "stateMutability": "nonpayable",
      "type": "function"
    },
    {
      "inputs": [
        {
          "internalType": "address",
          "name": "voterAddress",
          "type": "address"
        }
      ],
      "name": "removeVoter",
      "outputs": [],
      "stateMutability": "nonpayable",
      "type": "function"
    },
    {
      "inputs": [
        {
          "internalType": "uint256",
          "name": "candidateId",
          "type": "uint256"
        }
      ],
      "name": "vote",
      "outputs": [],
      "stateMutability": "nonpayable",
      "type": "function"
    },
    {
      "inputs": [],
      "name": "endElection",
      "outputs": [],
      "stateMutability": "nonpayable",
      "type": "function"
    },
    {
      "inputs": [],
      "name": "startElection",
      "outputs": [],
      "stateMutability": "nonpayable",
      "type": "function"
    },
    {
      "inputs": [],
      "name": "getElectionDetails",
      "outputs": [
        {
          "internalType": "string",
          "name": "",
          "type": "string"
        },
        {
          "internalType": "string",
          "name": "",
          "type": "string"
        },
        {
          "internalType": "string",
          "name": "",
          "type": "string"
        },
        {
          "internalType": "string",
          "name": "",
          "type": "string"
        },
        {
          "internalType": "string",
          "name": "",
          "type": "string"
        }
      ],
      "stateMutability": "view",
      "type": "function",
      "constant": true
    },
    {
      "inputs": [],
      "name": "getWinner",
      "outputs": [
        {
          "internalType": "uint256",
          "name": "winnerId",
          "type": "uint256"
        },
        {
          "internalType": "string",
          "name": "header",
          "type": "string"
        },
        {
          "internalType": "string",
          "name": "slogan",
          "type": "string"
        }
      ],
      "stateMutability": "view",
      "type": "function",
      "constant": true
    }
  ],
  "bytecode": "0x60806040523480156200001157600080fd5b506040516200494c3803806200494c833981810160405281019062000037919062000462565b60008551116200007e576040517f08c379a00000000000000000000000000000000000000000000000000000000081526004016200007590620005e6565b60405180910390fd5b6000845111620000c5576040517f08c379a0000000000000000000000000000000000000000000000000000000008152600401620000bc9062000658565b60405180910390fd5b60008351116200010c576040517f08c379a00000000000000000000000000000000000000000000000000000000081526004016200010390620006ca565b60405180910390fd5b600082511162000153576040517f08c379a00000000000000000000000000000000000000000000000000000000081526004016200014a906200073c565b60405180910390fd5b60008151116200019a576040517f08c379a00000000000000000000000000000000000000000000000000000000081526004016200019190620007ae565b60405180910390fd5b336000806101000a81548173ffffffffffffffffffffffffffffffffffffffff021916908373ffffffffffffffffffffffffffffffffffffffff160217905550600060018190555060006002819055506000600360006101000a81548160ff0219169083151502179055506000600360016101000a81548160ff0219169083151502179055506040518060a00160405280868152602001858152602001848152602001838152602001828152506004600082015181600001908162000260919062000a1b565b50602082015181600101908162000278919062000a1b565b50604082015181600201908162000290919062000a1b565b506060820151816003019081620002a8919062000a1b565b506080820151816004019081620002c0919062000a1b565b50905050505050505062000b02565b6000604051905090565b600080fd5b600080fd5b600080fd5b600080fd5b6000601f19601f8301169050919050565b7f4e487b7100000000000000000000000000000000000000000000000000000000600052604160045260246000fd5b6200033882620002ed565b810181811067ffffffffffffffff821117156200035a5762000359620002fe565b5b80604052505050565b60006200036f620002cf565b90506200037d82826200032d565b919050565b600067ffffffffffffffff821115620003a0576200039f620002fe565b5b620003ab82620002ed565b9050602081019050919050565b60005b83811015620003d8578082015181840152602081019050620003bb565b60008484015250505050565b6000620003fb620003f58462000382565b62000363565b9050828152602081018484840111156200041a5762000419620002e8565b5b62000427848285620003b8565b509392505050565b600082601f830112620004475762000446620002e3565b5b815162000459848260208601620003e4565b91505092915050565b600080600080600060a08688031215620004815762000480620002d9565b5b600086015167ffffffffffffffff811115620004a257620004a1620002de565b5b620004b0888289016200042f565b955050602086015167ffffffffffffffff811115620004d457620004d3620002de565b5b620004e2888289016200042f565b945050604086015167ffffffffffffffff811115620005065762000505620002de565b5b62000514888289016200042f565b935050606086015167ffffffffffffffff811115620005385762000537620002de565b5b62000546888289016200042f565b925050608086015167ffffffffffffffff8111156200056a5762000569620002de565b5b62000578888289016200042f565b9150509295509295909350565b600082825260208201905092915050565b7f41646d696e204e616d6520697320726571756972656400000000000000000000600082015250565b6000620005ce60168362000585565b9150620005db8262000596565b602082019050919050565b600060208201905081810360008301526200060181620005bf565b9050919050565b7f41646d696e20456d61696c206973207265717569726564000000000000000000600082015250565b60006200064060178362000585565b91506200064d8262000608565b602082019050919050565b60006020820190508181036000830152620006738162000631565b9050919050565b7f41646d696e205469746c65206973207265717569726564000000000000000000600082015250565b6000620006b260178362000585565b9150620006bf826200067a565b602082019050919050565b60006020820190508181036000830152620006e581620006a3565b9050919050565b7f456c656374696f6e205469746c65206973207265717569726564000000000000600082015250565b600062000724601a8362000585565b91506200073182620006ec565b602082019050919050565b60006020820190508181036000830152620007578162000715565b9050919050565b7f4f7267616e697a6174696f6e205469746c652069732072657175697265640000600082015250565b600062000796601e8362000585565b9150620007a3826200075e565b602082019050919050565b60006020820190508181036000830152620007c98162000787565b9050919050565b600081519050919050565b7f4e487b7100000000000000000000000000000000000000000000000000000000600052602260045260246000fd5b600060028204905060018216806200082357607f821691505b602082108103620008395762000838620007db565b5b50919050565b60008190508160005260206000209050919050565b60006020601f8301049050919050565b600082821b905092915050565b600060088302620008a37fffffffffffffffffffffffffffffffffffffffffffffffffffffffffffffffff8262000864565b620008af868362000864565b95508019841693508086168417925050509392505050565b6000819050919050565b6000819050919050565b6000620008fc620008f6620008f084620008c7565b620008d1565b620008c7565b9050919050565b6000819050919050565b6200091883620008db565b62000930620009278262000903565b84845462000871565b825550505050565b600090565b6200094762000938565b620009548184846200090d565b505050565b5b818110156200097c57620009706000826200093d565b6001810190506200095a565b5050565b601f821115620009cb5762000995816200083f565b620009a08462000854565b81016020851015620009b0578190505b620009c8620009bf8562000854565b83018262000959565b50505b505050565b600082821c905092915050565b6000620009f060001984600802620009d0565b1980831691505092915050565b600062000a0b8383620009dd565b9150826002028217905092915050565b62000a2682620007d0565b67ffffffffffffffff81111562000a425762000a41620002fe565b5b62000a4e82546200080a565b62000a5b82828562000980565b600060209050601f83116001811462000a93576000841562000a7e578287015190505b62000a8a8582620009fd565b86555062000afa565b601f19841662000aa3866200083f565b60005b8281101562000acd5784890151825560018201915060208501945060208101905062000aa6565b8683101562000aed578489015162000ae9601f891682620009dd565b8355505b6001600288020188555050505b505050505050565b613e3a8062000b126000396000f3fe608060405234801561001057600080fd5b50600436106101425760003560e01c806375829def116100b8578063be9a65551161007c578063be9a65551461032b578063da58c7d914610349578063ed836bc314610379578063efbe1c1c1461039b578063f851a440146103b9578063fee0d19a146103d757610142565b806375829def1461029457806386c1ff68146102b05780638e7ea5b2146102cc578063a9a981a3146102ec578063b28d92ae1461030a57610142565b80635938750d1161010a5780635938750d146101d757806359f784681461020f5780635c19a95c146102195780636247e5321461023557806362d73eb8146102685780636d2f69661461027257610142565b80630121b93f1461014757806302c9846d146101635780630deb56ab1461017f57806326541b561461019d57806342169e48146101b9575b600080fd5b610161600480360381019061015c9190612a04565b6103f3565b005b61017d60048036038101906101789190612ac7565b610697565b005b610187610812565b6040516101949190612b16565b60405180910390f35b6101b760048036038101906101b29190612c77565b61081c565b005b6101c161097d565b6040516101ce9190612b16565b60405180910390f35b6101f160048036038101906101ec9190612cef565b610983565b60405161020699989796959493929190612db9565b60405180910390f35b610217610b48565b005b610233600480360381019061022e9190612cef565b610c89565b005b61024f600480360381019061024a9190612a04565b6110ac565b60405161025f9493929190612e54565b60405180910390f35b6102706111ec565b005b61027a61132e565b60405161028b959493929190612ea7565b60405180910390f35b6102ae60048036038101906102a99190612cef565b6115fa565b005b6102ca60048036038101906102c59190612cef565b6117b4565b005b6102d4611bb8565b6040516102e393929190612f1d565b60405180910390f35b6102f4611e54565b6040516103019190612b16565b60405180910390f35b610312611e5a565b60405161032294939291906131ea565b60405180910390f35b6103336122ef565b604051610340919061324b565b60405180910390f35b610363600480360381019061035e9190612a04565b612302565b6040516103709190613266565b60405180910390f35b610381612341565b604051610392959493929190612ea7565b60405180910390f35b6103a361262e565b6040516103b0919061324b565b60405180910390f35b6103c1612641565b6040516103ce9190613266565b60405180910390f35b6103f160048036038101906103ec9190612c77565b612665565b005b6000600960003373ffffffffffffffffffffffffffffffffffffffff1673ffffffffffffffffffffffffffffffffffffffff1681526020019081526020016000209050600081600301541161047d576040517f08c379a0000000000000000000000000000000000000000000000000000000008152600401610474906132cd565b60405180910390fd5b8060040160009054906101000a900460ff16156104cf576040517f08c379a00000000000000000000000000000000000000000000000000000000081526004016104c690613339565b60405180910390fd5b8060060160009054906101000a900460ff16610520576040517f08c379a0000000000000000000000000000000000000000000000000000000008152600401610517906133a5565b60405180910390fd5b600360009054906101000a900460ff1661056f576040517f08c379a000000000000000000000000000000000000000000000000000000000815260040161056690613411565b60405180910390fd5b600360019054906101000a900460ff16156105bf576040517f08c379a00000000000000000000000000000000000000000000000000000000081526004016105b69061347d565b60405180910390fd5b6001548210610603576040517f08c379a00000000000000000000000000000000000000000000000000000000081526004016105fa906134e9565b60405180910390fd5b60018160040160006101000a81548160ff0219169083151502179055508181600501819055508060030154600a600084815260200190815260200160002060030160008282546106539190613538565b925050819055507fa36cc2bebb74db33e9f88110a07ef56e1b31b24b4c4f51b54b1664266e29f45b338360405161068b92919061356c565b60405180910390a15050565b60008054906101000a900473ffffffffffffffffffffffffffffffffffffffff1673ffffffffffffffffffffffffffffffffffffffff163373ffffffffffffffffffffffffffffffffffffffff1614610725576040517f08c379a000000000000000000000000000000000000000000000000000000000815260040161071c90613607565b60405180910390fd5b600960008373ffffffffffffffffffffffffffffffffffffffff1673ffffffffffffffffffffffffffffffffffffffff16815260200190815260200160002060060160019054906101000a900460ff166107b4576040517f08c379a00000000000000000000000000000000000000000000000000000000081526004016107ab90613673565b60405180910390fd5b80600960008473ffffffffffffffffffffffffffffffffffffffff1673ffffffffffffffffffffffffffffffffffffffff16815260200190815260200160002060060160006101000a81548160ff0219169083151502179055505050565b6000600154905090565b60008054906101000a900473ffffffffffffffffffffffffffffffffffffffff1673ffffffffffffffffffffffffffffffffffffffff163373ffffffffffffffffffffffffffffffffffffffff16146108aa576040517f08c379a00000000000000000000000000000000000000000000000000000000081526004016108a190613607565b60405180910390fd5b604051806080016040528060015481526020018381526020018281526020016000815250600a60006001548152602001908152602001600020600082015181600001556020820151816001019081610902919061389f565b506040820151816002019081610918919061389f565b50606082015181600301559050507fe83b2a43e7e82d975c8a0a6d2f045153c869e111136a34d1889ab7b598e396a360015483604051610959929190613971565b60405180910390a160016000815480929190610974906139a1565b91905055505050565b60025481565b60096020528060005260406000206000915090508060000160009054906101000a900473ffffffffffffffffffffffffffffffffffffffff16908060010180546109cc906136c2565b80601f01602080910402602001604051908101604052809291908181526020018280546109f8906136c2565b8015610a455780601f10610a1a57610100808354040283529160200191610a45565b820191906000526020600020905b815481529060010190602001808311610a2857829003601f168201915b505050505090806002018054610a5a906136c2565b80601f0160208091040260200160405190810160405280929190818152602001828054610a86906136c2565b8015610ad35780601f10610aa857610100808354040283529160200191610ad3565b820191906000526020600020905b815481529060010190602001808311610ab657829003601f168201915b5050505050908060030154908060040160009054906101000a900460ff16908060040160019054906101000a900473ffffffffffffffffffffffffffffffffffffffff16908060050154908060060160009054906101000a900460ff16908060060160019054906101000a900460ff16905089565b60008054906101000a900473ffffffffffffffffffffffffffffffffffffffff1673ffffffffffffffffffffffffffffffffffffffff163373ffffffffffffffffffffffffffffffffffffffff1614610bd6576040517f08c379a0000000000000000000000000000000000000000000000000000000008152600401610bcd90613607565b60405180910390fd5b600360009054906101000a900460ff16610c25576040517f08c379a0000000000000000000000000000000000000000000000000000000008152600401610c1c90613411565b60405180910390fd5b6001600360016101000a81548160ff0219169083151502179055506000600360006101000a81548160ff0219169083151502179055507f66ec723071e4bb646f7b35d31bc2dee8510979bd8c180edd0690d4f5e802f1e460405160405180910390a1565b6000600960003373ffffffffffffffffffffffffffffffffffffffff1673ffffffffffffffffffffffffffffffffffffffff16815260200190815260200160002090506000816003015411610d13576040517f08c379a0000000000000000000000000000000000000000000000000000000008152600401610d0a906132cd565b60405180910390fd5b8060040160009054906101000a900460ff1615610d65576040517f08c379a0000000000000000000000000000000000000000000000000000000008152600401610d5c90613339565b60405180910390fd5b3373ffffffffffffffffffffffffffffffffffffffff168273ffffffffffffffffffffffffffffffffffffffff1603610dd3576040517f08c379a0000000000000000000000000000000000000000000000000000000008152600401610dca90613a35565b60405180910390fd5b5b600073ffffffffffffffffffffffffffffffffffffffff16600960008473ffffffffffffffffffffffffffffffffffffffff1673ffffffffffffffffffffffffffffffffffffffff16815260200190815260200160002060040160019054906101000a900473ffffffffffffffffffffffffffffffffffffffff1673ffffffffffffffffffffffffffffffffffffffff1614610f4257600960008373ffffffffffffffffffffffffffffffffffffffff1673ffffffffffffffffffffffffffffffffffffffff16815260200190815260200160002060040160019054906101000a900473ffffffffffffffffffffffffffffffffffffffff1691503373ffffffffffffffffffffffffffffffffffffffff168273ffffffffffffffffffffffffffffffffffffffff1603610f3d576040517f08c379a0000000000000000000000000000000000000000000000000000000008152600401610f3490613aa1565b60405180910390fd5b610dd4565b6000600960008473ffffffffffffffffffffffffffffffffffffffff1673ffffffffffffffffffffffffffffffffffffffff16815260200190815260200160002090508060060160009054906101000a900460ff16610fd6576040517f08c379a0000000000000000000000000000000000000000000000000000000008152600401610fcd90613b0d565b60405180910390fd5b60018260040160006101000a81548160ff021916908315150217905550828260040160016101000a81548173ffffffffffffffffffffffffffffffffffffffff021916908373ffffffffffffffffffffffffffffffffffffffff1602179055508060040160009054906101000a900460ff1615611087578160030154600a600083600501548152602001908152602001600020600301600082825461107b9190613538565b925050819055506110a7565b816003015481600301600082825461109f9190613538565b925050819055505b505050565b600a6020528060005260406000206000915090508060000154908060010180546110d5906136c2565b80601f0160208091040260200160405190810160405280929190818152602001828054611101906136c2565b801561114e5780601f106111235761010080835404028352916020019161114e565b820191906000526020600020905b81548152906001019060200180831161113157829003601f168201915b505050505090806002018054611163906136c2565b80601f016020809104026020016040519081016040528092919081815260200182805461118f906136c2565b80156111dc5780601f106111b1576101008083540402835291602001916111dc565b820191906000526020600020905b8154815290600101906020018083116111bf57829003601f168201915b5050505050908060030154905084565b60008054906101000a900473ffffffffffffffffffffffffffffffffffffffff1673ffffffffffffffffffffffffffffffffffffffff163373ffffffffffffffffffffffffffffffffffffffff161461127a576040517f08c379a000000000000000000000000000000000000000000000000000000000815260040161127190613607565b60405180910390fd5b600360009054906101000a900460ff16156112ca576040517f08c379a00000000000000000000000000000000000000000000000000000000081526004016112c190613b79565b60405180910390fd5b6001600360006101000a81548160ff0219169083151502179055506000600360016101000a81548160ff0219169083151502179055507fc475c26aa25ed8e85a7faa790e5f63b5d7ee1025f12821f4c9bfddd36ab4d11260405160405180910390a1565b600480600001805461133f906136c2565b80601f016020809104026020016040519081016040528092919081815260200182805461136b906136c2565b80156113b85780601f1061138d576101008083540402835291602001916113b8565b820191906000526020600020905b81548152906001019060200180831161139b57829003601f168201915b5050505050908060010180546113cd906136c2565b80601f01602080910402602001604051908101604052809291908181526020018280546113f9906136c2565b80156114465780601f1061141b57610100808354040283529160200191611446565b820191906000526020600020905b81548152906001019060200180831161142957829003601f168201915b50505050509080600201805461145b906136c2565b80601f0160208091040260200160405190810160405280929190818152602001828054611487906136c2565b80156114d45780601f106114a9576101008083540402835291602001916114d4565b820191906000526020600020905b8154815290600101906020018083116114b757829003601f168201915b5050505050908060030180546114e9906136c2565b80601f0160208091040260200160405190810160405280929190818152602001828054611515906136c2565b80156115625780601f1061153757610100808354040283529160200191611562565b820191906000526020600020905b81548152906001019060200180831161154557829003601f168201915b505050505090806004018054611577906136c2565b80601f01602080910402602001604051908101604052809291908181526020018280546115a3906136c2565b80156115f05780601f106115c5576101008083540402835291602001916115f0565b820191906000526020600020905b8154815290600101906020018083116115d357829003601f168201915b5050505050905085565b60008054906101000a900473ffffffffffffffffffffffffffffffffffffffff1673ffffffffffffffffffffffffffffffffffffffff163373ffffffffffffffffffffffffffffffffffffffff1614611688576040517f08c379a000000000000000000000000000000000000000000000000000000000815260040161167f90613607565b60405180910390fd5b600073ffffffffffffffffffffffffffffffffffffffff168173ffffffffffffffffffffffffffffffffffffffff16036116f7576040517f08c379a00000000000000000000000000000000000000000000000000000000081526004016116ee90613be5565b60405180910390fd5b8073ffffffffffffffffffffffffffffffffffffffff1660008054906101000a900473ffffffffffffffffffffffffffffffffffffffff1673ffffffffffffffffffffffffffffffffffffffff167ff8ccb027dfcd135e000e9d45e6cc2d662578a8825d4c45b5e32e0adf67e79ec660405160405180910390a3806000806101000a81548173ffffffffffffffffffffffffffffffffffffffff021916908373ffffffffffffffffffffffffffffffffffffffff16021790555050565b60008054906101000a900473ffffffffffffffffffffffffffffffffffffffff1673ffffffffffffffffffffffffffffffffffffffff163373ffffffffffffffffffffffffffffffffffffffff1614611842576040517f08c379a000000000000000000000000000000000000000000000000000000000815260040161183990613607565b60405180910390fd5b600960008273ffffffffffffffffffffffffffffffffffffffff1673ffffffffffffffffffffffffffffffffffffffff16815260200190815260200160002060060160019054906101000a900460ff166118d1576040517f08c379a00000000000000000000000000000000000000000000000000000000081526004016118c890613673565b60405180910390fd5b600960008273ffffffffffffffffffffffffffffffffffffffff1673ffffffffffffffffffffffffffffffffffffffff168152602001908152602001600020600080820160006101000a81549073ffffffffffffffffffffffffffffffffffffffff0219169055600182016000611948919061295d565b600282016000611958919061295d565b60038201600090556004820160006101000a81549060ff02191690556004820160016101000a81549073ffffffffffffffffffffffffffffffffffffffff021916905560058201600090556006820160006101000a81549060ff02191690556006820160016101000a81549060ff0219169055505060005b600b80549050811015611b59578173ffffffffffffffffffffffffffffffffffffffff16600b8281548110611a0857611a07613c05565b5b9060005260206000200160009054906101000a900473ffffffffffffffffffffffffffffffffffffffff1673ffffffffffffffffffffffffffffffffffffffff1603611b4657600b6001600b80549050611a629190613c34565b81548110611a7357611a72613c05565b5b9060005260206000200160009054906101000a900473ffffffffffffffffffffffffffffffffffffffff16600b8281548110611ab257611ab1613c05565b5b9060005260206000200160006101000a81548173ffffffffffffffffffffffffffffffffffffffff021916908373ffffffffffffffffffffffffffffffffffffffff160217905550600b805480611b0c57611b0b613c68565b5b6001900381819060005260206000200160006101000a81549073ffffffffffffffffffffffffffffffffffffffff02191690559055611b59565b8080611b51906139a1565b9150506119d0565b5060026000815480929190611b6d90613c97565b91905055508073ffffffffffffffffffffffffffffffffffffffff167fa14a79af012d1756818f9bd59ccfc9ad185a71df86b9392d9059d9e6faf6d64460405160405180910390a250565b6000606080600360019054906101000a900460ff16611c0c576040517f08c379a0000000000000000000000000000000000000000000000000000000008152600401611c0390613d0c565b60405180910390fd5b600080806000905060005b600154811015611c9a5783600a6000838152602001908152602001600020600301541115611c6457600a600082815260200190815260200160002060030154935080925060009150611c87565b83600a60008381526020019081526020016000206003015403611c8657600191505b5b8080611c92906139a1565b915050611c17565b508015611cdc576040517f08c379a0000000000000000000000000000000000000000000000000000000008152600401611cd390613d78565b60405180910390fd5b6000600a600084815260200190815260200160002060405180608001604052908160008201548152602001600182018054611d16906136c2565b80601f0160208091040260200160405190810160405280929190818152602001828054611d42906136c2565b8015611d8f5780601f10611d6457610100808354040283529160200191611d8f565b820191906000526020600020905b815481529060010190602001808311611d7257829003601f168201915b50505050508152602001600282018054611da8906136c2565b80601f0160208091040260200160405190810160405280929190818152602001828054611dd4906136c2565b8015611e215780601f10611df657610100808354040283529160200191611e21565b820191906000526020600020905b815481529060010190602001808311611e0457829003601f168201915b50505050508152602001600382015481525050905080600001518160200151826040015196509650965050505050909192565b60015481565b60608060608060008054906101000a900473ffffffffffffffffffffffffffffffffffffffff1673ffffffffffffffffffffffffffffffffffffffff163373ffffffffffffffffffffffffffffffffffffffff1614611eee576040517f08c379a0000000000000000000000000000000000000000000000000000000008152600401611ee590613607565b60405180910390fd5b600060025467ffffffffffffffff811115611f0c57611f0b612b4c565b5b604051908082528060200260200182016040528015611f3a5781602001602082028036833780820191505090505b509050600060025467ffffffffffffffff811115611f5b57611f5a612b4c565b5b604051908082528060200260200182016040528015611f8e57816020015b6060815260200190600190039081611f795790505b509050600060025467ffffffffffffffff811115611faf57611fae612b4c565b5b604051908082528060200260200182016040528015611fe257816020015b6060815260200190600190039081611fcd5790505b509050600060025467ffffffffffffffff81111561200357612002612b4c565b5b6040519080825280602002602001820160405280156120315781602001602082028036833780820191505090505b50905060005b600b805490508110156122d857600060096000600b848154811061205e5761205d613c05565b5b9060005260206000200160009054906101000a900473ffffffffffffffffffffffffffffffffffffffff1673ffffffffffffffffffffffffffffffffffffffff1673ffffffffffffffffffffffffffffffffffffffff16815260200190815260200160002090508060000160009054906101000a900473ffffffffffffffffffffffffffffffffffffffff168683815181106120fd576120fc613c05565b5b602002602001019073ffffffffffffffffffffffffffffffffffffffff16908173ffffffffffffffffffffffffffffffffffffffff1681525050806001018054612146906136c2565b80601f0160208091040260200160405190810160405280929190818152602001828054612172906136c2565b80156121bf5780601f10612194576101008083540402835291602001916121bf565b820191906000526020600020905b8154815290600101906020018083116121a257829003601f168201915b50505050508583815181106121d7576121d6613c05565b5b60200260200101819052508060020180546121f1906136c2565b80601f016020809104026020016040519081016040528092919081815260200182805461221d906136c2565b801561226a5780601f1061223f5761010080835404028352916020019161226a565b820191906000526020600020905b81548152906001019060200180831161224d57829003601f168201915b505050505084838151811061228257612281613c05565b5b60200260200101819052508060060160009054906101000a900460ff168383815181106122b2576122b1613c05565b5b6020026020010190151590811515815250505080806122d0906139a1565b915050612037565b508383838397509750975097505050505090919293565b600360009054906101000a900460ff1681565b600b818154811061231257600080fd5b906000526020600020016000915054906101000a900473ffffffffffffffffffffffffffffffffffffffff1681565b606080606080606060046000016004600101600460020160046003016004800184805461236d906136c2565b80601f0160208091040260200160405190810160405280929190818152602001828054612399906136c2565b80156123e65780601f106123bb576101008083540402835291602001916123e6565b820191906000526020600020905b8154815290600101906020018083116123c957829003601f168201915b505050505094508380546123f9906136c2565b80601f0160208091040260200160405190810160405280929190818152602001828054612425906136c2565b80156124725780601f1061244757610100808354040283529160200191612472565b820191906000526020600020905b81548152906001019060200180831161245557829003601f168201915b50505050509350828054612485906136c2565b80601f01602080910402602001604051908101604052809291908181526020018280546124b1906136c2565b80156124fe5780601f106124d3576101008083540402835291602001916124fe565b820191906000526020600020905b8154815290600101906020018083116124e157829003601f168201915b50505050509250818054612511906136c2565b80601f016020809104026020016040519081016040528092919081815260200182805461253d906136c2565b801561258a5780601f1061255f5761010080835404028352916020019161258a565b820191906000526020600020905b81548152906001019060200180831161256d57829003601f168201915b5050505050915080805461259d906136c2565b80601f01602080910402602001604051908101604052809291908181526020018280546125c9906136c2565b80156126165780601f106125eb57610100808354040283529160200191612616565b820191906000526020600020905b8154815290600101906020018083116125f957829003601f168201915b50505050509050945094509450945094509091929394565b600360019054906101000a900460ff1681565b60008054906101000a900473ffffffffffffffffffffffffffffffffffffffff1681565b600960003373ffffffffffffffffffffffffffffffffffffffff1673ffffffffffffffffffffffffffffffffffffffff16815260200190815260200160002060060160019054906101000a900460ff16156126f5576040517f08c379a00000000000000000000000000000000000000000000000000000000081526004016126ec90613de4565b60405180910390fd5b6040518061012001604052803373ffffffffffffffffffffffffffffffffffffffff16815260200183815260200182815260200160018152602001600015158152602001600073ffffffffffffffffffffffffffffffffffffffff1681526020016000815260200160001515815260200160011515815250600960003373ffffffffffffffffffffffffffffffffffffffff1673ffffffffffffffffffffffffffffffffffffffff16815260200190815260200160002060008201518160000160006101000a81548173ffffffffffffffffffffffffffffffffffffffff021916908373ffffffffffffffffffffffffffffffffffffffff1602179055506020820151816001019081612808919061389f565b50604082015181600201908161281e919061389f565b506060820151816003015560808201518160040160006101000a81548160ff02191690831515021790555060a08201518160040160016101000a81548173ffffffffffffffffffffffffffffffffffffffff021916908373ffffffffffffffffffffffffffffffffffffffff16021790555060c0820151816005015560e08201518160060160006101000a81548160ff0219169083151502179055506101008201518160060160016101000a81548160ff021916908315150217905550905050600b339080600181540180825580915050600190039060005260206000200160009091909190916101000a81548173ffffffffffffffffffffffffffffffffffffffff021916908373ffffffffffffffffffffffffffffffffffffffff16021790555060026000815480929190612954906139a1565b91905055505050565b508054612969906136c2565b6000825580601f1061297b575061299a565b601f016020900490600052602060002090810190612999919061299d565b5b50565b5b808211156129b657600081600090555060010161299e565b5090565b6000604051905090565b600080fd5b600080fd5b6000819050919050565b6129e1816129ce565b81146129ec57600080fd5b50565b6000813590506129fe816129d8565b92915050565b600060208284031215612a1a57612a196129c4565b5b6000612a28848285016129ef565b91505092915050565b600073ffffffffffffffffffffffffffffffffffffffff82169050919050565b6000612a5c82612a31565b9050919050565b612a6c81612a51565b8114612a7757600080fd5b50565b600081359050612a8981612a63565b92915050565b60008115159050919050565b612aa481612a8f565b8114612aaf57600080fd5b50565b600081359050612ac181612a9b565b92915050565b60008060408385031215612ade57612add6129c4565b5b6000612aec85828601612a7a565b9250506020612afd85828601612ab2565b9150509250929050565b612b10816129ce565b82525050565b6000602082019050612b2b6000830184612b07565b92915050565b600080fd5b600080fd5b6000601f19601f8301169050919050565b7f4e487b7100000000000000000000000000000000000000000000000000000000600052604160045260246000fd5b612b8482612b3b565b810181811067ffffffffffffffff82111715612ba357612ba2612b4c565b5b80604052505050565b6000612bb66129ba565b9050612bc28282612b7b565b919050565b600067ffffffffffffffff821115612be257612be1612b4c565b5b612beb82612b3b565b9050602081019050919050565b82818337600083830152505050565b6000612c1a612c1584612bc7565b612bac565b905082815260208101848484011115612c3657612c35612b36565b5b612c41848285612bf8565b509392505050565b600082601f830112612c5e57612c5d612b31565b5b8135612c6e848260208601612c07565b91505092915050565b60008060408385031215612c8e57612c8d6129c4565b5b600083013567ffffffffffffffff811115612cac57612cab6129c9565b5b612cb885828601612c49565b925050602083013567ffffffffffffffff811115612cd957612cd86129c9565b5b612ce585828601612c49565b9150509250929050565b600060208284031215612d0557612d046129c4565b5b6000612d1384828501612a7a565b91505092915050565b612d2581612a51565b82525050565b600081519050919050565b600082825260208201905092915050565b60005b83811015612d65578082015181840152602081019050612d4a565b60008484015250505050565b6000612d7c82612d2b565b612d868185612d36565b9350612d96818560208601612d47565b612d9f81612b3b565b840191505092915050565b612db381612a8f565b82525050565b600061012082019050612dcf600083018c612d1c565b8181036020830152612de1818b612d71565b90508181036040830152612df5818a612d71565b9050612e046060830189612b07565b612e116080830188612daa565b612e1e60a0830187612d1c565b612e2b60c0830186612b07565b612e3860e0830185612daa565b612e46610100830184612daa565b9a9950505050505050505050565b6000608082019050612e696000830187612b07565b8181036020830152612e7b8186612d71565b90508181036040830152612e8f8185612d71565b9050612e9e6060830184612b07565b95945050505050565b600060a0820190508181036000830152612ec18188612d71565b90508181036020830152612ed58187612d71565b90508181036040830152612ee98186612d71565b90508181036060830152612efd8185612d71565b90508181036080830152612f118184612d71565b90509695505050505050565b6000606082019050612f326000830186612b07565b8181036020830152612f448185612d71565b90508181036040830152612f588184612d71565b9050949350505050565b600081519050919050565b600082825260208201905092915050565b6000819050602082019050919050565b612f9781612a51565b82525050565b6000612fa98383612f8e565b60208301905092915050565b6000602082019050919050565b6000612fcd82612f62565b612fd78185612f6d565b9350612fe283612f7e565b8060005b83811015613013578151612ffa8882612f9d565b975061300583612fb5565b925050600181019050612fe6565b5085935050505092915050565b600081519050919050565b600082825260208201905092915050565b6000819050602082019050919050565b600082825260208201905092915050565b600061306882612d2b565b613072818561304c565b9350613082818560208601612d47565b61308b81612b3b565b840191505092915050565b60006130a2838361305d565b905092915050565b6000602082019050919050565b60006130c282613020565b6130cc818561302b565b9350836020820285016130de8561303c565b8060005b8581101561311a57848403895281516130fb8582613096565b9450613106836130aa565b925060208a019950506001810190506130e2565b50829750879550505050505092915050565b600081519050919050565b600082825260208201905092915050565b6000819050602082019050919050565b61316181612a8f565b82525050565b60006131738383613158565b60208301905092915050565b6000602082019050919050565b60006131978261312c565b6131a18185613137565b93506131ac83613148565b8060005b838110156131dd5781516131c48882613167565b97506131cf8361317f565b9250506001810190506131b0565b5085935050505092915050565b600060808201905081810360008301526132048187612fc2565b9050818103602083015261321881866130b7565b9050818103604083015261322c81856130b7565b90508181036060830152613240818461318c565b905095945050505050565b60006020820190506132606000830184612daa565b92915050565b600060208201905061327b6000830184612d1c565b92915050565b7f4e6f20726967687420746f20766f746500000000000000000000000000000000600082015250565b60006132b7601083612d36565b91506132c282613281565b602082019050919050565b600060208201905081810360008301526132e6816132aa565b9050919050565b7f416c726561647920766f74656400000000000000000000000000000000000000600082015250565b6000613323600d83612d36565b915061332e826132ed565b602082019050919050565b6000602082019050818103600083015261335281613316565b9050919050565b7f4e6f7420766572696669656420746f20766f7465000000000000000000000000600082015250565b600061338f601483612d36565b915061339a82613359565b602082019050919050565b600060208201905081810360008301526133be81613382565b9050919050565b7f456c656374696f6e206e6f742073746172746564000000000000000000000000600082015250565b60006133fb601483612d36565b9150613406826133c5565b602082019050919050565b6000602082019050818103600083015261342a816133ee565b9050919050565b7f456c656374696f6e2068617320656e6465640000000000000000000000000000600082015250565b6000613467601283612d36565b915061347282613431565b602082019050919050565b600060208201905081810360008301526134968161345a565b9050919050565b7f496e76616c69642063616e646964617465204944000000000000000000000000600082015250565b60006134d3601483612d36565b91506134de8261349d565b602082019050919050565b60006020820190508181036000830152613502816134c6565b9050919050565b7f4e487b7100000000000000000000000000000000000000000000000000000000600052601160045260246000fd5b6000613543826129ce565b915061354e836129ce565b925082820190508082111561356657613565613509565b5b92915050565b60006040820190506135816000830185612d1c565b61358e6020830184612b07565b9392505050565b7f4f6e6c792061646d696e2063616e20706572666f726d2074686973206163746960008201527f6f6e000000000000000000000000000000000000000000000000000000000000602082015250565b60006135f1602283612d36565b91506135fc82613595565b604082019050919050565b60006020820190508181036000830152613620816135e4565b9050919050565b7f566f746572206e6f742072656769737465726564000000000000000000000000600082015250565b600061365d601483612d36565b915061366882613627565b602082019050919050565b6000602082019050818103600083015261368c81613650565b9050919050565b7f4e487b7100000000000000000000000000000000000000000000000000000000600052602260045260246000fd5b600060028204905060018216806136da57607f821691505b6020821081036136ed576136ec613693565b5b50919050565b60008190508160005260206000209050919050565b60006020601f8301049050919050565b600082821b905092915050565b6000600883026137557fffffffffffffffffffffffffffffffffffffffffffffffffffffffffffffffff82613718565b61375f8683613718565b95508019841693508086168417925050509392505050565b6000819050919050565b600061379c613797613792846129ce565b613777565b6129ce565b9050919050565b6000819050919050565b6137b683613781565b6137ca6137c2826137a3565b848454613725565b825550505050565b600090565b6137df6137d2565b6137ea8184846137ad565b505050565b5b8181101561380e576138036000826137d7565b6001810190506137f0565b5050565b601f82111561385357613824816136f3565b61382d84613708565b8101602085101561383c578190505b61385061384885613708565b8301826137ef565b50505b505050565b600082821c905092915050565b600061387660001984600802613858565b1980831691505092915050565b600061388f8383613865565b9150826002028217905092915050565b6138a882612d2b565b67ffffffffffffffff8111156138c1576138c0612b4c565b5b6138cb82546136c2565b6138d6828285613812565b600060209050601f83116001811461390957600084156138f7578287015190505b6139018582613883565b865550613969565b601f198416613917866136f3565b60005b8281101561393f5784890151825560018201915060208501945060208101905061391a565b8683101561395c5784890151613958601f891682613865565b8355505b6001600288020188555050505b505050505050565b60006040820190506139866000830185612b07565b81810360208301526139988184612d71565b90509392505050565b60006139ac826129ce565b91507fffffffffffffffffffffffffffffffffffffffffffffffffffffffffffffffff82036139de576139dd613509565b5b600182019050919050565b7f53656c662d64656c65676174696f6e20697320646973616c6c6f776564000000600082015250565b6000613a1f601d83612d36565b9150613a2a826139e9565b602082019050919050565b60006020820190508181036000830152613a4e81613a12565b9050919050565b7f466f756e64206c6f6f7020696e2064656c65676174696f6e0000000000000000600082015250565b6000613a8b601883612d36565b9150613a9682613a55565b602082019050919050565b60006020820190508181036000830152613aba81613a7e565b9050919050565b7f44656c6567617465206e6f742076657269666965640000000000000000000000600082015250565b6000613af7601583612d36565b9150613b0282613ac1565b602082019050919050565b60006020820190508181036000830152613b2681613aea565b9050919050565b7f456c656374696f6e20616c726561647920737461727465640000000000000000600082015250565b6000613b63601883612d36565b9150613b6e82613b2d565b602082019050919050565b60006020820190508181036000830152613b9281613b56565b9050919050565b7f496e76616c696420616464726573730000000000000000000000000000000000600082015250565b6000613bcf600f83612d36565b9150613bda82613b99565b602082019050919050565b60006020820190508181036000830152613bfe81613bc2565b9050919050565b7f4e487b7100000000000000000000000000000000000000000000000000000000600052603260045260246000fd5b6000613c3f826129ce565b9150613c4a836129ce565b9250828203905081811115613c6257613c61613509565b5b92915050565b7f4e487b7100000000000000000000000000000000000000000000000000000000600052603160045260246000fd5b6000613ca2826129ce565b915060008203613cb557613cb4613509565b5b600182039050919050565b7f456c656374696f6e206e6f7420656e6465640000000000000000000000000000600082015250565b6000613cf6601283612d36565b9150613d0182613cc0565b602082019050919050565b60006020820190508181036000830152613d2581613ce9565b9050919050565b7f5469652064657465637465642c206e6f20636c6561722077696e6e6572000000600082015250565b6000613d62601d83612d36565b9150613d6d82613d2c565b602082019050919050565b60006020820190508181036000830152613d9181613d55565b9050919050565b7f416c726561647920726567697374657265640000000000000000000000000000600082015250565b6000613dce601283612d36565b9150613dd982613d98565b602082019050919050565b60006020820190508181036000830152613dfd81613dc1565b905091905056fea264697066735822122064275bcd5148aaa539c8c7266428e09c771f2687677667ef4f808c70f99264e864736f6c63430008130033",
  "immutableReferences": {},
  "source": "// SPDX-License-Identifier: MIT\npragma solidity >=0.4.22 <0.9.0;\n\ncontract Election {\n    // Admin address\n    address public admin;\n    // Total number of candidates\n    uint256 public candidateCount;\n    // Total number of voters\n    uint256 public voterCount;\n    // Flags to indicate the election's state\n    bool public start;\n    bool public end;\n\n    // Events\n    event ElectionStarted();\n    event ElectionEnded();\n    event CandidateAdded(uint256 candidateId, string header);\n    event VoteCast(address voter, uint256 candidateId);\n    event AdminTransferred(address indexed oldAdmin, address indexed newAdmin);\n    event VoterRemoved(address indexed voterAddress);\n\n    // Struct to represent a voter\n    struct Voter {\n        address voterAddress; // Address of the voter\n        string name; // Name of the voter\n        string phone; // Phone number of the voter\n        uint weight; // Weight of the vote (for delegation)\n        bool voted; // Whether the voter has voted\n        address delegate; // Address to whom the vote is delegated\n        uint vote; // Index of the candidate voted for\n        bool isVerified; // Whether the voter is verified\n        bool isRegistered; // Whether the voter is registered\n    }\n\n    // Struct to represent a candidate\n    struct Candidate {\n        uint256 candidateId; // Unique ID of the candidate\n        string header; // Name or title of the candidate\n        string slogan; // Slogan or description of the candidate\n        uint256 voteCount; // Number of votes received by the candidate\n    }\n\n    // Struct to hold election metadata\n    struct ElectionDetails {\n        string adminName; // Name of the admin\n        string adminEmail; // Email of the admin\n        string adminTitle; // Title of the admin\n        string electionTitle; // Title of the election\n        string organizationTitle; // Organization managing the election\n    }\n\n    // Election details instance\n    ElectionDetails public electionDetails;\n    // Mapping of voter address to Voter struct\n    mapping(address => Voter) public voterDetails;\n    // Mapping of candidate ID to Candidate struct\n    mapping(uint256 => Candidate) public candidateDetails;\n    // Array of voter addresses\n    address[] public voters;\n\n    // Modifier to restrict access to admin only\n    modifier onlyAdmin() {\n        require(msg.sender == admin, \"Only admin can perform this action\");\n        _;\n    }\n\n    // Constructor to initialize the contract with election details\n    constructor(string memory _adminName, string memory _adminEmail, string memory _adminTitle, string memory _electionTitle, string memory _organizationTitle) {\n      require(bytes(_adminName).length > 0, \"Admin Name is required\");\n      require(bytes(_adminEmail).length > 0, \"Admin Email is required\");\n      require(bytes(_adminTitle).length > 0, \"Admin Title is required\");\n      require(bytes(_electionTitle).length > 0, \"Election Title is required\");\n      require(bytes(_organizationTitle).length > 0, \"Organization Title is required\");\n\n      admin = msg.sender;\n      candidateCount = 0;\n      voterCount = 0;\n      start = false;\n      end = false;\n      electionDetails = ElectionDetails(_adminName, _adminEmail, _adminTitle, _electionTitle, _organizationTitle);\n    }\n\n\n    // Admin functions\n    function transferAdmin(address newAdmin) public onlyAdmin {\n        require(newAdmin != address(0), \"Invalid address\");\n        emit AdminTransferred(admin, newAdmin);\n        admin = newAdmin;\n    }\n\n    // Function to add a candidate to the election\n    function addCandidate(string memory _header, string memory _slogan) public onlyAdmin {\n        candidateDetails[candidateCount] = Candidate({\n            candidateId: candidateCount,\n            header: _header,\n            slogan: _slogan,\n            voteCount: 0\n        });\n        emit CandidateAdded(candidateCount, _header);\n        candidateCount++;\n    }\n\n    // Function to get the total number of candidates\n    function getTotalCandidates() public view returns (uint256) {\n        return candidateCount;\n    }\n\n    // Function for a user to register as a voter\n    function registerAsVoter(string memory _name, string memory _phone) public {\n        require(!voterDetails[msg.sender].isRegistered, \"Already registered\");\n        voterDetails[msg.sender] = Voter({\n            voterAddress: msg.sender,\n            name: _name,\n            phone: _phone,\n            weight: 1,\n            voted: false,\n            delegate: address(0),\n            vote: 0,\n            isVerified: false,\n            isRegistered: true\n        });\n        voters.push(msg.sender);\n        voterCount++;\n    }\n\n\n    // Function to get voter details\n    function getVoterList() public view onlyAdmin returns (address[] memory, string[] memory, string[] memory, bool[] memory) {\n        address[] memory voterAddresses = new address[](voterCount);\n        string[] memory voterNames = new string[](voterCount);\n        string[] memory voterPhones = new string[](voterCount);\n        bool[] memory isVerifiedStatuses = new bool[](voterCount);\n\n        for (uint i = 0; i < voters.length; i++) {\n            Voter storage voter = voterDetails[voters[i]];\n            voterAddresses[i] = voter.voterAddress;\n            voterNames[i] = voter.name;\n            voterPhones[i] = voter.phone;\n            isVerifiedStatuses[i] = voter.isVerified;\n        }\n\n        return (voterAddresses, voterNames, voterPhones, isVerifiedStatuses);\n    }\n\n\n    // Function to verify a voter by the admin\n    function verifyVoter(address voterAddress, bool _verifiedStatus) public onlyAdmin {\n        require(voterDetails[voterAddress].isRegistered, \"Voter not registered\");\n        voterDetails[voterAddress].isVerified = _verifiedStatus;\n    }\n\n    // Function to delegate a vote to another voter\n    function delegate(address to) public {\n        Voter storage sender = voterDetails[msg.sender];\n        require(sender.weight > 0, \"No right to vote\");\n        require(!sender.voted, \"Already voted\");\n        require(to != msg.sender, \"Self-delegation is disallowed\");\n\n        while (voterDetails[to].delegate != address(0)) {\n            to = voterDetails[to].delegate;\n            require(to != msg.sender, \"Found loop in delegation\");\n        }\n\n        Voter storage delegate_ = voterDetails[to];\n        require(delegate_.isVerified, \"Delegate not verified\");\n\n        sender.voted = true;\n        sender.delegate = to;\n\n        if (delegate_.voted) {\n            candidateDetails[delegate_.vote].voteCount += sender.weight;\n        } else {\n            delegate_.weight += sender.weight;\n        }\n    }\n\n    function removeVoter(address voterAddress) public onlyAdmin {\n        require(voterDetails[voterAddress].isRegistered, \"Voter not registered\");\n        delete voterDetails[voterAddress];\n        for (uint i = 0; i < voters.length; i++) {\n            if (voters[i] == voterAddress) {\n                voters[i] = voters[voters.length - 1];\n                voters.pop();\n                break;\n            }\n        }\n        voterCount--;\n        emit VoterRemoved(voterAddress);\n    }\n\n    // Function for a voter to cast a vote\n    function vote(uint256 candidateId) public {\n        Voter storage sender = voterDetails[msg.sender];\n        require(sender.weight > 0, \"No right to vote\");\n        require(!sender.voted, \"Already voted\");\n        require(sender.isVerified, \"Not verified to vote\");\n        require(start, \"Election not started\");\n        require(!end, \"Election has ended\");\n        require(candidateId < candidateCount, \"Invalid candidate ID\");\n\n        sender.voted = true;\n        sender.vote = candidateId;\n        candidateDetails[candidateId].voteCount += sender.weight;\n\n        emit VoteCast(msg.sender, candidateId);\n    }\n\n    // Function to end the election\n    function endElection() public onlyAdmin {\n        require(start, \"Election not started\");\n        end = true;\n        start = false;\n        emit ElectionEnded();\n    }\n\n    // Function to start the election\n    function startElection() public onlyAdmin {\n        require(!start, \"Election already started\");\n        start = true;\n        end = false;\n        emit ElectionStarted();\n    }\n\n    // Function to get the election details\n    function getElectionDetails() public view returns (string memory, string memory, string memory, string memory, string memory) {\n        return (\n            electionDetails.adminName,\n            electionDetails.adminEmail,\n            electionDetails.adminTitle,\n            electionDetails.electionTitle,\n            electionDetails.organizationTitle\n        );\n    }\n\n    // Function to compute and return the winner of the election\n    function getWinner() public view returns (uint256 winnerId, string memory header, string memory slogan) {\n        require(end, \"Election not ended\");\n        uint256 maxVotes = 0;\n        uint256 winningCandidateId;\n        bool tie = false;\n\n        for (uint256 i = 0; i < candidateCount; i++) {\n            if (candidateDetails[i].voteCount > maxVotes) {\n                maxVotes = candidateDetails[i].voteCount;\n                winningCandidateId = i;\n                tie = false;\n            } else if (candidateDetails[i].voteCount == maxVotes) {\n                tie = true;\n            }\n        }\n\n        require(!tie, \"Tie detected, no clear winner\");\n\n        Candidate memory winner = candidateDetails[winningCandidateId];\n        return (winner.candidateId, winner.header, winner.slogan);\n    }\n}\n",
  "sourcePath": "C:\\Users\\odrag\\Documents\\blockchain\\proiect DA\\smartcontract\\contracts\\Election.sol",
  "compiler": {
    "name": "solc",
    "version": "0.8.19+commit.7dd6d404.Emscripten.clang"
  },
  "schemaVersion": "3.4.16",
  "updatedAt": "2025-05-29T07:24:42.823Z",
  "networkType": "ethereum",
  "devdoc": {
    "kind": "dev",
    "methods": {},
    "version": 1
  },
  "userdoc": {
    "kind": "user",
    "methods": {},
    "version": 1
  }
}